{
  "_format": "hh-sol-artifact-1",
  "contractName": "Notarizer",
  "sourceName": "contracts/Notarizer.sol",
  "abi": [
    {
      "inputs": [
        {
          "internalType": "string",
          "name": "",
          "type": "string"
        }
      ],
      "name": "hashes",
      "outputs": [
        {
          "internalType": "bool",
          "name": "",
          "type": "bool"
        }
      ],
      "stateMutability": "view",
      "type": "function"
    },
    {
      "inputs": [
        {
          "internalType": "string",
          "name": "hash",
          "type": "string"
        }
      ],
      "name": "notarizeHash",
      "outputs": [],
      "stateMutability": "nonpayable",
      "type": "function"
    },
    {
      "inputs": [
        {
          "internalType": "string",
          "name": "hash",
          "type": "string"
        }
      ],
      "name": "verifyHash",
      "outputs": [
        {
          "internalType": "bool",
          "name": "",
          "type": "bool"
        }
      ],
      "stateMutability": "view",
      "type": "function"
    }
  ],
  "bytecode": "0x6080604052348015600f57600080fd5b506102438061001f6000396000f3fe608060405234801561001057600080fd5b50600436106100415760003560e01c8063685e0dc71461004657806386fb2813146100885780638fb35daa1461009b575b600080fd5b610074610054366004610125565b805160208183018101805160008252928201919093012091525460ff1681565b604051901515815260200160405180910390f35b610074610096366004610125565b6100b0565b6100ae6100a9366004610125565b6100da565b005b600080826040516100c191906101de565b9081526040519081900360200190205460ff1692915050565b60016000826040516100ec91906101de565b908152604051908190036020019020805491151560ff1990921691909117905550565b634e487b7160e01b600052604160045260246000fd5b60006020828403121561013757600080fd5b813567ffffffffffffffff81111561014e57600080fd5b8201601f8101841361015f57600080fd5b803567ffffffffffffffff8111156101795761017961010f565b604051601f8201601f19908116603f0116810167ffffffffffffffff811182821017156101a8576101a861010f565b6040528181528282016020018610156101c057600080fd5b81602084016020830137600091810160200191909152949350505050565b6000825160005b818110156101ff57602081860181015185830152016101e5565b50600092019182525091905056fea264697066735822122065a38942cedde8b2abf8cee4bd6f1c80d1308628b462dbce3016d6c1430f2ef464736f6c634300081c0033",
  "linkReferences": {},
  "deployedLinkReferences": {}
}