{
  "_format": "hh-sol-artifact-1",
  "contractName": "ReceiptNotary",
  "sourceName": "contracts/ReceiptNotary.sol",
  "abi": [
    {
      "anonymous": false,
      "inputs": [
        {
          "indexed": true,
          "internalType": "bytes32",
          "name": "hash",
          "type": "bytes32"
        },
        {
          "indexed": true,
          "internalType": "address",
          "name": "by",
          "type": "address"
        }
      ],
      "name": "ReceiptNotarized",
      "type": "event"
    },
    {
      "inputs": [
        {
          "internalType": "bytes32",
          "name": "hash",
          "type": "bytes32"
        }
      ],
      "name": "notarizeReceipt",
      "outputs": [],
      "stateMutability": "nonpayable",
      "type": "function"
    },
    {
      "inputs": [
        {
          "internalType": "bytes32",
          "name": "",
          "type": "bytes32"
        }
      ],
      "name": "receiptHashes",
      "outputs": [
        {
          "internalType": "bool",
          "name": "",
          "type": "bool"
        }
      ],
      "stateMutability": "view",
      "type": "function"
    },
    {
      "inputs": [
        {
          "internalType": "bytes32",
          "name": "hash",
          "type": "bytes32"
        }
      ],
      "name": "verifyReceipt",
      "outputs": [
        {
          "internalType": "bool",
          "name": "",
          "type": "bool"
        }
      ],
      "stateMutability": "view",
      "type": "function"
    }
  ],
  "bytecode": "0x6080604052348015600f57600080fd5b506101a38061001f6000396000f3fe608060405234801561001057600080fd5b50600436106100415760003560e01c8063326f9d2e146100465780638174794e1461007d5780639e31a428146100a0575b600080fd5b610069610054366004610154565b60006020819052908152604090205460ff1681565b604051901515815260200160405180910390f35b61006961008b366004610154565b60009081526020819052604090205460ff1690565b6100b36100ae366004610154565b6100b5565b005b60008181526020819052604090205460ff161561010e5760405162461bcd60e51b81526020600482015260136024820152724861736820616c72656164792065786973747360681b604482015260640160405180910390fd5b600081815260208190526040808220805460ff1916600117905551339183917fe59bcbfd3574202ffc6c62b78693de49f56691eda10091bfbb95cc7ec8d849e49190a350565b60006020828403121561016657600080fd5b503591905056fea26469706673582212204dbdf2a174f81e98644d94b64e2b30d668b7acad226971b5684ebdfce850c7f764736f6c634300081c0033",
  "linkReferences": {},
  "deployedLinkReferences": {}
}